:020000040000FA
:060000000CEF00F01200FD
:0600070001A0EF03F00070
:100018000EEE7EF01EEEF9F079EC07F000EE0EF031
:1000280011EEA9F079EC07F00EEE7DF01EEE7EF0F1
:10003800070EF66E000EF76E000EF86E0AEC52F020
:1000480000EE4CF011EE00F0640EF66E000EF76E46
:10005800000EF86E0AEC52F02CEF03F04026C02791
:100068001629D42A022C202E422E5A2EB62EC22E03
:100078003E322433CE3310361A368A37DC372A38E4
:10008800F638FA38143B343B5C3BBC3BD03BCA3EA9
:10009800F03E1A3F223F243F6440B6400641C84123
:1000A800CA410A435C43AA434E447444B044E04402
:1000B8001A452E45444552456645404658467246BF
:1000C8009C46B2464A4750475C477E478C47F64CA9
:1000D800184D304DAC55E855425B645B7C5BF8636A
:1000E80034649065A665AE650866000000000000EF
:1000F80000000000000000000000000000000000F8
:1001080000000000000000000000000000000000E7
:100118000101936B966B946B956B0101246B010144
:10012800256B266B0101276B286B0101486B496B16
:100138000101276B286B0101686B0101626B636B1E
:100148000101646B0101656B666B0101676B00015E
:100158002F6B306B0AEC05F00001296F2951BB0A9F
:10016800010ED8A474D12F6F306B0AEC05F0E8CFDC
:1001780022F122C123F1020E00012F6F306B0AEC2D
:1001880005F0006E010100C01EF11F6B1EC120F1B9
:100198001FC121F1030E00012F6F306B0AEC05F02F
:1001A800E8CF29F1040E00012F6F306B0AEC05F03F
:1001B800E8CF2AF1050E00012F6F306B0AEC05F02D
:1001C800E8CF2BF1060E00012F6F306B0AEC05F01B
:1001D800E8CF2CF1070E00012F6F306B0AEC05F009
:1001E800E8CF2DF1080E00012F6F306B0AEC05F0F7
:1001F800E8CF2EF1090E00012F6F306B0AEC05F0E5
:10020800006E010100C04CF14D6B4C51016E006A4B
:1002180000C04CF101C04DF10A0E00012F6F306B88
:100228000AEC05F0006E00C002F0036A4CC1E8FF5A
:100238000224E8CF4CF14DC1E8FF0320E8CF4DF18F
:100248000B0E00012F6F306B0AEC05F0006E0101F8
:1002580000C04EF14F6B4E51016E006A00C04EF166
:1002680001C04FF10C0E00012F6F306B0AEC05F046
:10027800006E00C002F0036A4EC1E8FF0224E8CF16
:100288004EF14FC1E8FF0320E8CF4FF10D0E0001FA
:100298002F6F306B0AEC05F0006E010100C050F1C1
:1002A800516B5051016E006A00C050F101C051F10C
:1002B8000E0E00012F6F306B0AEC05F0006E00C0C7
:1002C80002F0036A50C1E8FF0224E8CF50F151C19F
:1002D800E8FF0320E8CF51F1E80E026E030E036E2B
:1002E80001EE4CF0EECF00F0EDCF01F0F2EC50F063
:1002F80004C000F005C001F00A0E026E036AF2ECB9
:1003080050F000C052F101C053F10F0E00012F6FE1
:10031800306B0AEC05F0006E010100C056F1576B16
:100328005651016E006A00C056F101C057F1100E17
:1003380000012F6F306B0AEC05F0006E00C002F070
:10034800036A56C1E8FF0224E8CF56F157C1E8FF17
:100358000320E8CF57F1110E00012F6F306B0AEC24
:1003680005F0006E010100C058F1596B5851016E3B
:10037800006A00C058F101C059F1120E00012F6F38
:10038800306B0AEC05F0006E00C002F0036A58C139
:10039800E8FF0224E8CF58F159C1E8FF0320E8CF6D
:1003A80059F1130E00012F6F306B0AEC05F0006E47
:1003B800010100C05AF15B6B5A51016E006A00C01E
:1003C8005AF101C05BF1140E00012F6F306B0AEC7B
:1003D80005F0006E00C002F0036A5AC1E8FF02246B
:1003E800E8CF5AF15BC1E8FF0320E8CF5BF1E80EE4
:0803F800026E030E036E01EE1C
:1004000056F0EECF00F0EDCF01F0F2EC50F004C06A
:1004100000F005C001F00A0E026E036AF2EC50F023
:1004200000C05CF101C05DF1170E00012F6F306B51
:100430000AEC05F0006E010100C03FF1406B160EA2
:1004400000012F6F306B0AEC05F0E8CF3CF10101A1
:100450003D6B3E6B1200E8CF22F10101010E1E6FD1
:100460001F6B0101296B01012A6B01012B6B01013B
:100470002C6B01012D6B01012E6B01013F6B406B59
:1004800001013D6B3E6B01013C6B01010A0E4C6F9B
:100490004D6B0101140E4E6F4F6B01011E0E506F1C
:1004A000516B0101526B536B01010A0E566F576B72
:1004B0000101140E586F596B01011E0E5A6F5B6BD0
:1004C00001015C6B5D6B090E00012B6F2C6B4DC144
:1004D00000F0016A00502D6FF2EC04F00A0E0001EA
:1004E0002B6F2C6B4CC12DF0F2EC04F00B0E0001C5
:1004F0002B6F2C6B4FC100F0016A00502D6FF2EC96
:1005000004F00C0E00012B6F2C6B4EC12DF0F2ECA1
:1005100004F00D0E00012B6F2C6B51C100F0016A2D
:1005200000502D6FF2EC04F00E0E00012B6F2C6BBF
:1005300050C12DF0F2EC04F00F0E00012B6F2C6B6C
:1005400057C100F0016A00502D6FF2EC04F0100E5C
:1005500000012B6F2C6B56C12DF0F2EC04F0110E44
:1005600000012B6F2C6B59C100F0016A00502D6FF8
:10057000F2EC04F0120E00012B6F2C6B58C12DF021
:10058000F2EC04F0130E00012B6F2C6B5BC100F03A
:10059000016A00502D6FF2EC04F0140E00012B6F75
:1005A0002C6B5AC12DF0F2EC04F0010E00012B6F00
:1005B0002C6B22C12DF0F2EC04F0020E00012B6F27
:1005C0002C6B1EC12DF0F2EC04F0030E00012B6F1A
:1005D0002C6B29C12DF0F2EC04F0040E00012B6FFE
:1005E0002C6B2AC12DF0F2EC04F0050E00012B6FEC
:1005F0002C6B2BC12DF0F2EC04F0060E00012B6FDA
:100600002C6B2CC12DF0F2EC04F0070E00012B6FC7
:100610002C6B2DC12DF0F2EC04F0080E00012B6FB5
:100620002C6B2EC12DF0F2EC04F0170E00012B6F95
:100630002C6B3FC12DF0F2EC04F0160E00012B6F75
:100640002C6B3DC12DF0F2EC04F000012B6B2C6BF8
:10065000BB0E2D6FF2EF04F074EC36F089EC36F03F
:10066000B2EC51F0C0EC51F07EEC4DF067EC4EF086
:1006700042EC50F0B1EC47F068EC4FF098EC50F0E1
:1006800064EC48F077EC48F0989446DD83A085B0A0
:1006900004D082B202D0060E01D0040EE8CF18F0CA
:1006A000F28CF28E859485968592808401011E0ECF
:1006B0004C6F4D6B0101140E4E6F4F6B01010A0E12
:1006C000506F516B25C000F00004D8A404D0000185
:1006D000256BBEEC36F064C100F00004D8A413D042
:1006E0000101646B33EC4EF083A085B004D082B27C
:1006F00002D0060E01D0040EE8CF18F00FEC33F054
:1007000077EC4FF0867467C100F00004D8A40ED0D7
:100710000101676B86744DEC50F0A8C100F0000435
:10072000D8A404D00101A86BFBEC12F096C1E8FF3D
:10073000020AD8A4C7D70101966BC5EC44F0C2D712
:10074000E9CFFFFEEACFFEFE04C0FDFE03C0FCFEC3
:1007500002C0FBFE01C0FAFE00C0F9FEA4A442D014
:10076000A49417C000F00004D8A43CD016C0E8FF41
:10077000030AD8B40AD016C0E8FF040AD8B405D0DA
:1007800016C0E8FF050AD8A42DD0C30EC216C28237
:1007900000011D6B9EACFED79E9CC4CF00F0030EE3
:1007A0000016000100C019F01A6B1951016E006AA1
:1007B00000C019F001C01AF000EE19F0EECF00F001
:1007C000EDCF01F00050C324E8CF19F0000E012056
:1007D000E8CF1AF0F60ECF6E1B0ECE6ECD80020E55
:1007E000E8CF17F0A4A242D0A49217C000F00004F2
:1007F000D8A43CD000011653D8B40AD016C000F0DB
:100800000004D8B405D016C0E8FF020AD8A42ED040
:10081000C30EC216060EC21200011D6B9EACFED79F
:100820009E9CC4CF00F0030E0016000100C019F01A
:100830001A6B1951016E006A00C019F001C01AF05C
:1008400000EE19F0EECF00F0EDCF01F00050C32420
:10085000E8CF19F0000E0120E8CF1AF0F60ECF6EA7
:100860001B0ECE6ECD80020EE8CF17F09EA056D0A4
:100870009E90CD9017C0E8FF020AD8A44FD0000187
:100880001653D8B40AD016C000F00004D8B405D06E
:1008900016C0E8FF020AD8A409D0C30EC216060E7D
:1008A000C21200011D6B9EACFED716D016C0E8FF29
:1008B000030AD8B40AD016C0E8FF040AD8B405D099
:1008C00016C0E8FF050AD8A426D0C30EC216C282FD
:1008D00000011D6B9EACFED79E9CC4CF00F0030EA2
:1008E0000016000100C01BF01C6B00011951016EC5
:1008F000006A00C01BF001C01CF000EE19F0EECF42
:1009000000F0EDCF01F00050C324E8CF1BF0000E43
:100910000120E8CF1CF0030EE8CF17F09EAA19D0F3
:1009200093C1E8FF01EE6BF0E926000EEA22AECF9C
:10093000EFFF010EE8CF96F10101946B956B932BBD
:10094000140E016E93C1E8FF25EC51F00050E8CF82
:1009500093F19EA237D09E920001262B000E2723F2
:10096000275D0A0ED8B4265DD8A006D00001266BFC
:10097000276B010EE8CF25F00101622B000E6323E7
:1009800062511E0A6311D8A406D00101626B636B29
:10099000010EE8CF64F1010EE8CF67F196C100F0D7
:1009A0000004D8A40FD00101942B000E952394517C
:1009B000060A9511D8A406D0020EE8CF96F1936BE3
:1009C000946B956BF9CE00F0FACE01F0FBCE02F0FD
:1009D000FCCE03F0FDCE04F0FECEEAFFFFCEE9FF31
:1009E00011002B0000012C51030BAA6E2B51A96E94
:1009F0002D51A86EA69EA69CA684F29E550EA76EAB
:100A0000AA0EA76EA682A1A8FED7A198F28EA694E0
:100A100012002F0000013051030BAA6E2F51A96E56
:100A2000A69EA69CA680A8501200D96E070E026E44
:100A3000036A01EE3FF0EECF00F0EDCF01F0EFECF6
:100A400051F0180E042400012B6F000E05202C6FAE
:100A5000D9502D6FC7DF070E026E036A01EE3FF01B
:100A6000EECF00F0EDCF01F0EFEC51F0190E0424C1
:100A700000012B6F000E05202C6FA1C12DF0B2DFFD
:100A8000070E026E036A01EE3FF0EECF00F0EDCFED
:100A900001F0EFEC51F01A0E042400012B6F000E50
:100AA00005202C6F9FC12DF09DDF070E026E036A9B
:100AB00001EE3FF0EECF00F0EDCF01F0EFEC51F0A2
:100AC0001B0E042400012B6F000E05202C6F9DC10E
:100AD0002DF088DF070E026E036A01EE3FF0EECFC5
:100AE00000F0EDCF01F0EFEC51F01C0E04240001FA
:100AF0002B6F000E05202C6F9BC12DF073DF070EAE
:100B0000026E036A01EE3FF0EECF00F0EDCF01F090
:100B1000EFEC51F01D0E042400012B6F000E052098
:100B20002C6F99C12DF05EDF070E026E036A01EE95
:100B30003FF0EECF00F0EDCF01F0EFEC51F01E0EE4
:100B4000042400012B6F000E05202C6F97C12DF09F
:100B500049DF01013C2B640E3C6502D0E8CF3CF13B
:100B6000160E00012B6F2C6B3CC12DF03BDF0101F9
:100B70003F2B000E40234051800A800F650ED8B4F1
:100B80003F5DD8A003D001013F6B406B170E000101
:100B90002B6F2C6B3FC12DF025D73CC1E8FF640AB9
:100BA000D8A418D001EE3FF0EECF00F0EDCF01F069
:100BB000FF0E000601223DC1E8FF005CF36E3EC15E
:100BC000E8FF0158F46EF4AE1AD0640EF326000E5E
:100BD000F42215D0640E01013C6111D001EE3FF00A
:100BE000EECF00F0EDCF01F0FF0E000601223FC175
:100BF000E8FF005CF36E40C1E8FF0158F46EF3CFEC
:100C00002FF0F4CF30F006DFE8CF41F1F3280001F8
:100C10002F6F000EF420306FFDDEE8CF42F1020EA0
:100C2000F32400012F6F000EF420306FF3DEE8CFC5
:100C300043F1030EF32400012F6F000EF420306FF8
:100C4000E9DEE8CF44F1040EF32400012F6F000E1B
:100C5000F420306FDFDEE8CF45F1050EF32400010C
:100C60002F6F000EF420306FD5DEE8CF46F1060E70
:100C7000F32400012F6F000EF420306FCBDEE8CF9D
:100C800047F112007DCEE8FF020AD8A414D0020E6C
:100C900000012F6F306BBEDE006E000100C014F04B
:100CA000156B141D1511D8A403D00E017D6B03D054
:100CB000010EE8CF7DFE0E017D53D8A447D0000180
:100CC000122B000E1323010E135DF50ED8B4125D26
:100CD000D8A006D0010EE8CF7DFE126B136B120078
:100CE0000E01922B12C02BF013C02CF092CE2DF0DF
:100CF00079DE0001940E356F0E0E366F376B386B50
:100D0000640E396F3A6B9AEC51F00001940E376F14
:100D10000E0E386F220E396F0F0E3A6F12C029F087
:100D200013C02AF0290EE8CF35F0000EE8CF36F0D8
:100D3000A6EC4AF00001356B366B376B386B396BBC
:100D4000940E3A6F0E0E3B6F64EC49F07DCE00F0CE
:100D50000004D8A4120012C02FF013C030F05ADEE5
:100D6000E8CF92FE0001122B000E1323010E135D3B
:100D7000F50ED8B4125DD8A005D0020EE8CF7DFEE6
:100D8000126B136B0001940E356F0E0E366F376BBE
:100D9000386B640E396F3A6B9AEC51F00001940E87
:100DA000376F0E0E386F2F0E396F0F0E3A6F92CECF
:100DB00029F02A6B290EE8CF35F0000EE8CF36F087
:100DC000A6EC4AF0020E0001356F366B376B386BBC
:100DD000396B940E3A6F0E0E3B6F64EC49F00001D4
:100DE000940E356F0E0E366F376B386B640E396F9D
:100DF0003A6B9AEC51F00001940E376F0E0E386F7B
:100E0000220E396F0F0E3A6F12C029F013C02AF06C
:100E1000290EE8CF35F0000EE8CF36F0A6EC4AF008
:100E2000040E0001356F366B376B386B396B940EDF
:100E30003A6F0E0E3B6F64EF49F0E96AEA6A0C6A9A
:100E4000086A096A0A6A0B6A04500510061007103E
:100E500006E1046A056A066A076ADFEF51F0C00E10
:100E60000C1606D0D89004360536063607360C2AFE
:100E700007AEF8D70C2AD890083609360A360B3652
:100E80000750035C08E10650025C05E10550015C77
:100E900002E10450005C09E308800450005E055044
:100EA000015A0650025A0750035AD89007320632A8
:100EB000053204320C060C503F0BDDE10CBC1BEC80
:100EC00052F00050046E0150056E0250066E035041
:100ED000076E0850006E0950016E0A50026E0B50EA
:100EE000036E0CAEE3EF51F01BEC52F0E3EF51F068
:100EF000EE6AEA50E262FCD7E950E162F9D71200EB
:100F00002020253032643A253032643A253032646C
:100F1000003230253032642D253032642D253032B8
:100F20006400655F616464723A2534642020006562
:100F30005F646174613A2534642020000001030479
:100F40000001020004000203010400030002040087
:100F50000405060708050505050506060606060735
:100F6000070707070808080808090A0B0C0D0A0AF2
:100F70000A0A0A0B0B0B0B0B0C0C0C0C0C0D0D0DB9
:100F80000D0D0E0F1011120F0F0F0F0F101010106C
:100F90001011111111111212121212131415161729
:100FA00014141414141515151515161616161617EF
:100FB0001717171718191A1B1C19191919191A1AA2
:100FC0001A1A1A1B1B1B1B1B1C1C1C1C1C1D1E1F66
:100FD00020211E1E1E1E1E1F1F1F1F1F202020201F
:100FE00020212121212122232425262323232323D9
:100FF000242424242425252525252626262626279F
:10100000272727272828282828292A2B2C2D2A2A51
:101010002A2A2A2B2B2B2B2B2C2C2C2C2C2D2D2D18
:101020002D2D2E2F3031322F2F2F2F2F30303030CB
:101030003031313131313232323232333435363788
:10104000343434343435353535353636363636374E
:101050003737373738393A3B3C39393939393A3A01
:101060003A3A3A3B3B3B3B3B3C3C3C3C3C3D3E3FC5
:1010700040413E3E3E3E3E3F3F3F3F3F404040407E
:101080004041414141414243444546434343434338
:101090004444444444454545454546464646460045
:1010A0000000000000000000000000000000000040
:1010B0000000000000000000000000000000000030
:1010C0000000000000000000000000000000000020
:1010D0000000000000000000000000000000000010
:1010E0000000000000000000000000000000000000
:1010F0000000000000000000000000000000253497
:101100006400B5D82020D6B73A202020253033649B
:101110000020202020202020253032643A25303243
:10112000643A2530326400D0F2BAC53A25303264D0
:1011300020D7DCBCC63A2530326400CAB1BCE43AE0
:101140003230253032642D253032642D2530326422
:1011500000253031640025642564256425642564F8
:10116000256400B5E7D1B9B2CECAFD4D2025303493
:10117000645600B5E7D1B9B2CECAFD4C2025303453
:10118000645600B5E7D1B9B2CECAFD482025303447
:1011900064560043753A253464560042753A253446
:1011A00064560041753A253464560043CFE0B5E7F4
:1011B000D1B93A253464560042CFE0B5E7D1B93A07
:1011C000253464560041CFE0B5E7D1B93A253464FF
:1011D0005600B5E7C1F7B2CECAFD4D2025303464C4
:1011E000754100B5E7C1F7B2CECAFD4C20253034B9
:1011F00064754100B5E7C1F7B2CECAFD482025307D
:10120000346475410043CFE0B5E7C1F73A25346453
:1012100075410042CFE0B5E7C1F73A253464754126
:101220000041CFE0B5E7C1F73A253464754100D0FD
:10123000B9C2A9B5E7C1F73A253464754100B2A82F
:10124000CCD8C2CA3A20203438303000B2A8CCD82A
:10125000C2CA3A20203936303000B2A8CCD8C2CA2F
:101260003A3131353230300020B9CAD5CFBCC7C28F
:10127000BCC7E5B3FD21210020CEDEB9CAD5CFBC65
:10128000C7C2BC21210043693A2534642000426969
:101290003A253464200041693A253464200043CF64
:1012A000E0B5E7C1F73A2534647541200042CFE04C
:1012B000B5E7C1F73A2534647541200041CFE0B568
:1012C000E7C1F73A25346475412000202020202012
:1012D000202020202020202020202000202020B995
:1012E000CAD5CFB1A8B8E62020202000202020C3F6
:1012F000DCC2EBD0DEB8C42020202000202020B2A9
:10130000CECAFDC9E8D6C32020202000202020CA54
:10131000B1BCE4C9E8D6C320202020000000B5E716
:10132000D1B9B2CECAFD00CDA8D1B6B2CECAFD00A9
:10133000C2A9D0B9B5E7C1F700B7F100CAE4C8EB5C
:10134000C3DCC2EB00D0DEB8C4C3DCC2EB00C7E52F
:10135000B3FDB9CAD5CFB1A8B8E600B5B1C7B0D70B
:10136000B4CCAC3AD4CBD0D000C0E0D0CD3AB8DFCA
:10137000B6C8B9CAD5CF00C0E0D0CD3AD6D0B6C82D
:10138000B9CAD5CF00C0E0D0CD3AB5CDB6C8B9CA3C
:10139000D5CF00A1CC00B5B1C7B0D7B4CCAC3ACD55
:1013A000A3D4CB00CAC700B5E7C1F7B2CECAFDC906
:1013B000E8D6C300B5E7D1B9B2CECAFDC9E8D6C3F5
:1013C00000CAB1BCE4C9E8D6C3002020B2A8CCD87A
:1013D000C2CAC9E8D6C3002020B5D8D6B7C9E8D656
:1013E000C300A1CCC7E5B3FDB9CAD5CFBCC7C2BC49
:1013F000002020B5E7C1F7E3D0D6B5002020B5E73F
:10140000D1B9E3D0D6B500003300190001000000C7
:1014100000000000000000000000000000000000CC
:10142000000000F833003000000000000000001051
:10143000000C00060010000C00060000004004C074
:101440003F78044004C03F7804400400000000706E
:10145000188820FCFF0821301E00000000F0000862
:1014600021F01C0003E01E1821001E0000001EF0E9
:10147000210823882470190027002100101000166D
:10148000000E00000000000000000000000000004E
:10149000000000E0071818042002400000000002CD
:1014A0004004201818E0070000000000004002403F
:1014B000028001F00F8001400240020000000100A4
:1014C000010001F01F000100010001000000800088
:1014D000B0007000000000000000000000000000EC
:1014E00001000100010001000100010001000000F5
:1014F000300030000000000000000000000000008C
:10150000600018000680016000180004000000E080
:101510000F1010082008201010E00F00000000102D
:10152000201020F83F002000200000000000007084
:10153000300828082408228821703000000000307C
:10154000180820882088204811300E000000000074
:1015500007C00420241024F83F002400000000F8F5
:10156000190821882088200811080E00000000E0DA
:101570000F1011882088201811000E00000000387C
:10158000000800083FC80038000800000000007094
:101590001C8822082108218822701C00000000E01D
:1015A000001031082208221011E00F000000000096
:1015B000000000C030C0300000000000000000004B
:1015C00000008080600000000000000000000000BB
:1015D0000180024004200810100820000040044050
:1015E000044004400440044004400400000000089B
:1015F000201010200840048002000100000000704C
:10160000004800083008360801F0000000C007302C
:1016100018C8272824E8231014E00B00000020003D
:101620003CC0233802E0020027003800200820F8E0
:101630003F8820882088207011000E0000C00730ED
:10164000180820082008200810380800000820F892
:101650003F0820082008201010E00F00000820F8A4
:101660003F88208820E8230820101800000820F870
:101670003F88208800E803080010000000C0073001
:1016800018082008200822381E000200000820F850
:101690003F0821000100010821F83F082000000850
:1016A000200820F83F082008200000000000C000AB
:1016B0008008800880F87F0800080000000820F8F3
:1016C0003F8820C00128261838082000000820F88C
:1016D0003F0820002000200020003000000820F8F3
:1016E0003FF800003FF800F83F082000000820F80D
:1016F0003F3020C00000070818F83F0800E00F1036
:10170000100820082008201010E00F00000820F822
:101710003F0821080108010801F0000000E00F1057
:10172000180824082408381050E04F00000820F85A
:101730003F882088008803880C70300020000070EB
:10174000388820082108210822381C0000180008C9
:10175000000820F83F08200800180000000800F8E2
:101760001F0820002000200820F81F08000800782B
:101770000088070038000EC80138000800F8030888
:101780003C0007F8000007083CF803000008201898
:1017900030682C80038003682C183008200800383B
:1017A00000C820003FC820380008000000102008B2
:1017B0003808260821C8203820081800000000003A
:1017C000000000FE7F024002400240000000000CCA
:1017D000003000C0010006003800C0000000000218
:1017E0004002400240FE7F000000000000000000B8
:1017F000000400020002000200040000000080005B
:101800008000800080008000800080008000000256
:1018100000020004000000000000000000000000C2
:10182000198024802280228022003F00200800F8B6
:101830003F0011802080200011000E0000000000F9
:101840000E00118020802080200011000000000088
:101850000E0011802080208810F83F00200000003A
:101860001F8022802280228022001300000000803E
:10187000208020F03F882088208800180000000089
:101880006B8094809480948093806000000820F89E
:101890003F0021800080008020003F002000008069
:1018A000209820983F002000200000000000000049
:1018B000C0008080809880987F000000000820F899
:1018C0003F00240002802D803080200000000008AE
:1018D000200820F83F002000200000000080208029
:1018E0003F80208000803F80208000003F8020805B
:1018F0003F0021800080008020003F002000000089
:101900001F8020802080208020001F000080808099
:10191000FF00A1802080200011000E0000000000C8
:101920000E00118020802080A080FF008080208019
:1019300020803F0021802080008001000000000006
:1019400033802480248024802480190000000080BB
:10195000008000E01F8020802000000000800080C8
:101960001F0020002000208010803F002080008089
:1019700001800E00300008800680018000800F800A
:1019800030000C8003000C8030800F80000000804D
:10199000208031002E800E803180200000808080E9
:1019A00081808E0070001880068001800000008019
:1019B000218030802C8022802180300000000000B7
:1019C000000000000080007C3F0240024000000058
:1019D0000000000000FFFF00000000000000000207
:1019E0004002407C3F800000000000000000000634
:1019F00000010001000200020004000400A1CC006C
:101A00000800040008001000200010000800040076
:101A1000020001800040002000100008000000B516
:101A2000B100000000802488249024A02480248019
:101A300024FC248024E024A0249024887F08000033
:101A400000C7B000001000D07F500A500A540A5856
:101A50004AD07F10001000980F14401040F07F1003
:101A6000001000D7B40000100C20064001FC7F00DD
:101A7000404040402040184006FC014002480C50C5
:101A80001040200000CCAC000010221012100910F1
:101A900001907C7040BC40944530495048906010A3
:101AA00021100910121002CDA380004000F07F0C1D
:101AB00000000708010801680568456C45687D68F5
:101AC000056805680508010803D4CB000080408440
:101AD00020883F102040404058485C484AC8494848
:101AE000484848484A484C48584040D0D000002018
:101AF000021001887F4400040000008800880088EC
:101B00000088408840887F880080008000CDA80041
:101B10000040404820D83F00200020C85F4845587A
:101B2000456845E85F584558454865C85F0040D15D
:101B3000B6000040004400C87F08200810080908CB
:101B400001F87F080108010800F81F00600040004C
:101B500070B2CE0000800C8004E044A056B055A8BE
:101B600053E44AA429A025A815B012A00AC00480F5
:101B7000040004CAFD000020062C55B05C6036FC51
:101B8000257034B82C20212041E0403C2724182027
:101B90001EE0212040B2A8000040204838880E10E6
:101BA000400038F047904090639024FC18901890C3
:101BB00026D02130400000CCD80000C004380420DA
:101BC00002FC7F200160015002500A50127C4250FA
:101BD00042D07F500250024000C2CA0000000828D4
:101BE0000E280A4809480A480A680BDCFE480AA879
:101BF0000B480E4809280A080E0008B5D800002036
:101C0000102010FC0F2008200880008000FC3F40BE
:101C1000404040FC4F20442044E0470060D6B700DD
:101C20000040204010FC1F4010402800280020F0F9
:101C30003F00200020FC3F4020402040200020B5F5
:101C4000E700000000F00F9004900490049004FC62
:101C50007F90449044904490449044F04F00300072
:101C600000D1B900400070F80F08000820082108D2
:101C70002108210821F83F08210825082D083908E6
:101C8000200020CFE00008200C2006A001FC7FA04F
:101C90000020012002F87F4822482248224822489A
:101CA00022F87F0000D0B9000040408460881850BE
:101CB000044000FC7F40404040FC4F4048404840CA
:101CC00048FC4F40404000C2A900004060443888B2
:101CD0000408400038F80FA87EA812A806A802A899
:101CE0007FA856A866B87E8000C1F7000040404437
:101CF00030880C904490409020D01EB0009C7E987C
:101D000000B000D07E904010410020CAB100000019
:101D100000F83F880888088808F81F200020012064
:101D20004320462040FC7F200020002000BCE4002F
:101D3000000000F07F04000800C80F400A400A4875
:101D40000A480AC80F080008400840F87F0000C988
:101D5000E8000040004400CC7F182010500048806C
:101D60004178270829081108297825404340404038
:101D700000D6C3000040405840587F586D586D58F9
:101D80006DF86D586D586D586D586D587F584040BE
:101D9000400000B9CA00002000207F2011FC112063
:101DA00011203F20408040C023382C24182038A028
:101DB0002760402040D5CF00000000F87F8810C881
:101DC000113812181CD8175C155C155CFD58155895
:101DD00015D81718101010B1A800001002104210EA
:101DE00042FC7F10019000FC7F84408423A43EC409
:101DF00018A41C9C2300200000B8E600000001800D
:101E00000160013C7D202520252025FC2520252062
:101E1000252025207D200100010000C3DC000000FA
:101E20000C3805C8740844C847184628454C7D88B6
:101E300044684428464842887838010000C2EB08CC
:101E4000040806C83FB81088108810883F000808AA
:101E500009F809080908090849E8491861001FD06C
:101E6000DE000080004000F07F0C00E01F20013009
:101E7000450855AC4AC82A4829A8159812000900F7
:101E800001B8C400000000887F882088108850F8BE
:101E9000488040C0203823241420082016E0212048
:101EA000602040CAE400001011D0093C09D4FF10A2
:101EB000095009C07FA00AB04AAC7F2C00305E20D8
:101EC00040207F4000C8EB00000000002000100010
:101ED0000800040403CC003000C0010002000C0024
:101EE00018003000200000D0F200400060F81F0809
:101EF000000801280128012E41AC41A87FA80168F3
:101F0000012801280708010000BAC50000000100EF
:101F10000100017C0144074405440544454445440F
:101F20004544457C3D000100010000B8DF00000889
:101F300000087E0802E802A81EA816AC16AC16A877
:101F400016A816E81E08420842087E0000B6C8001F
:101F5000000060F83F484048404844E845485D4C30
:101F60002548255835E82D4844484048400000C0E1
:101F7000E000000044204720452445B82460246048
:101F800014FC0F200C6014B024A824204520450028
:101F900044D0CD000040404846484BF848484848A7
:101FA00048F84B487E48480048F848004A004AFC38
:101FB000430040CAC70000004100610031781DA8FD
:101FC00015A821A821A87FA845A845A845784500BF
:101FD0004500410041B7F1000008010801087D8873
:101FE00024882448242824F827082428244824481E
:101FF00024887C88010000D7DC000000600038E005
:10200000012401287D38412045204D3059284124A4
:1020100041E035000C00300020BCC64000400044C8
:1020200000C87F102050104008400040004000FCD5
:102030007F40004000400040000000C7E500004035
:102040000044208818100480008800A87EA82AA8D0
:102050002AFC2AA82AA86AA87E88008000B3FD006E
:10206000000000FC7F4408B4084C2F4012600A5066
:102070004A4C42CC7F50025002600A40124020BCC1
:10208000C7000040004400C87F1810101808080856
:1020900000887F8840884088408840F841004000A0
:1020A00030C2BC000080208021A812A816A80CA86D
:1020B00044A840A87FA804A80CA80CF8128011809E
:1020C000208020CEDE000080408860882088108834
:1020D000088806F8018800887F884088408840800A
:1020E0004080600020E3D000000000E07F44104802
:1020F0001740154815482FF813481C5814682348F2
:10210000710840F87F0000D6B5000080004000F064
:102110007F0C401440D07F50555055785554555041
:10212000555055D07F1040004000000000000000D6
:10213000000000000000000000000000000000009F
:10214000000000000000000000000000000000008F
:10215000000000000000000000000000000000007F
:10216000000000000000000000000000000000006F
:10217000000000000000000000000000000000005F
:10218000000000000000000000000000000000004F
:10219000000000000000000000000000000000003F
:1021A000000000000000000000000000000000002F
:1021B000000000000000000000000000000000001F
:1021C000000000000000000000000000000000000F
:1021D00000000000000000000000000000000000FF
:1021E00000000000000000000000000000000000EF
:1021F00000000000000000000000000000000000DF
:1022000000000000000000000000000000000000CE
:1022100000000000000000000000000000000000BE
:1022200000000000000000000000000000000000AE
:10223000000000000000000000000000000000009E
:102240000000000000000000000000000000FC385A
:10225000000000000000844F00008000000082CDDC
:102260007F008000000082458000E00F0000C24433
:10227000800080100000F23C800080100000D20A34
:10228000800080100000524A920000000080534AF3
:1022900092000000004050499200000F0040504959
:1022A0009200801200409049920080120040104934
:1022B00092008012004010499200000B004010492B
:1022C0009200000000809049920000000080544974
:1022D0009200000000805449920000000080544A9F
:1022E0009200F01F0080540A800000000080F40A71
:1022F000800000000080C41C800000000080842456
:10230000C0000000000087E57F0000000000842F6F
:10231000000000000000FC380000801000000000F9
:10232000000000000000FCFF3800000000004288B0
:102330004600000000804308C30000000040400841
:1023400080002000004000008000200000400000CD
:102350004000F01F0080030020000000008000000B
:10236000180000000040400807000000004040083E
:1023700001000000004040087B00F00D00C0C38F4A
:102380004E00901000403CFC860090100040080475
:1023900086009010004030068000100F0040C003FF
:1023A0008000000000C077E0810000000040981F1E
:1023B0007F0060180040081CC60010140040080C84
:1023C0008600101200403006800010110040C0034B
:1023D0008000E0100040000080000000004000008D
:1023E000C000C0070080FFFF7F0020080000000041
:1023F0000000101000000000000010100000F8FFA6
:1024000001002008000004000600C00700000200D0
:1024100004000000000002000400000000000200B0
:102420000400E00900000200040010120000821005
:1024300004001012000082100400100A00808310B3
:102440007C00E00700400000C000000000400000E9
:1024500080000000004000008000E00E004000000E
:102460008000101100C00000800010110080831057
:1024700084001011000082108400E00E0000821021
:102480008400000000000200840000000000020040
:102490008600601800000280810010140000028095
:1024A0008000101200000680800010110000FCFF68
:1024B0008000E0100000000061000000000000004B
:1024C0001E000000000000000000200000000000CE
:1024D000000020000000003E0000F01F000000434C
:1024E0000000000000801F410000000000C03041DB
:1024F000000000000040204100001000004020418A
:102500003E001000004020416100100000402041CA
:102510004100101800402041410090070040E0C1F8
:102520004100700000402000400000000040E0003A
:1025300040000000004060014000600C00402002AC
:102540004000101000400004400010110040000442
:1025500020001011004000C21F00E00E00400042A9
:1025600000000000004000410000100000408041D9
:102570000000100000404041000010000080304189
:102580000000101800000F410000900700000041FB
:10259000000070000000003E00000000000000008D
:1025A000000000000000000000000000000000002B
:1025B000000000000000000000000000000000001B
:1025C000000000000000000000000000000000000B
:1025D00000000000000000000000000000000000FB
:1025E00000000000000000000000000000000000EB
:0625F000000000000000E5
:1025F60024C1E8FF050DA3C1E8FFF326000EF4226F
:10260600F3503C0FF66EF450F76E0F0EF7220800EB
:10261600F5CF24F124C1E8FF020D4C0EF324E96E38
:10262600000EF420EA6EEECF00F0EDCF01F000C010
:10263600F6FF01C0F7FF25EF52F064EC48F0010108
:1026460068A126D00001940E356F0E0E366F376BDB
:10265600386B640E396F3A6B9AEC51F00001940EA8
:10266600376F0E0E386F5B0E396F130E3A6FA6EC8E
:102676004AF0010E0001356F366B0C0E376F386B62
:10268600396B940E3A6F0E0E3B6F64EC49F025D011
:102696000001940E356F0E0E366F376B386B640E75
:1026A600396F3A6B9AEC51F00001940E376F0E0EAB
:1026B600386F960E396F130E3A6FA6EC4AF0010E7C
:1026C6000001356F366B0C0E376F386B396B940E15
:1026D6003A6F0E0E3B6F64EC49F00001940E356FB5
:1026E6000E0E366F376B386B640E396F3A6B9AEC99
:1026F60051F00001940E376F0E0E386F400E396F91
:10270600110E3A6F01EE9DF0EECF2DF0EDCF2EF0CB
:1027160001EE9FF0EECF2BF0EDCF2CF001EEA1F005
:10272600EECF29F0EDCF2AF0290EE8CF35F0000ED6
:10273600E8CF36F0A6EC4AF0030E0001356F366B93
:10274600180E376F386B396B940E3A6F0E0E3B6F5F
:1027560064EC49F00001940E356F0E0E366F376B40
:10276600386B640E396F3A6B9AEC51F00001940E97
:10277600376F0E0E386F180E396F110E3A6F97C1FC
:102786002DF098C12EF001EE99F0EECF2BF0EDCFA3
:102796002CF001EE9BF0EECF29F0EDCF2AF0290EBA
:1027A600E8CF35F0000EE8CF36F0A6EC4AF0050E7D
:1027B6000001356F366B200E60D164EC48F00001E5
:1027C600940E356F0E0E366F376B386B640E396F9D
:1027D6003A6B9AEC51F00001940E376F0E0E386F7B
:1027E6001E0E396F130E3A6FA6EC4AF00001356BD8
:0A27F600366B200E376F386B396B1D
:10280000940E3A6F0E0E3B6F64EC49F00001940E8B
:10281000356F0E0E366F376B386B640E396F3A6B4F
:102820009AEC51F00001940E376F0E0E386FC50E02
:10283000396F110E3A6F12C129F013C12AF0290E17
:10284000E8CF35F0000EE8CF36F0A6EC4AF0020EE5
:102850000001356F366B0C0E376F386B396B940E89
:102860003A6F0E0E3B6F64EC49F00001940E356F29
:102870000E0E366F376B386B640E396F3A6B9AEC0D
:1028800051F00001940E376F0E0E386FB80E396F8D
:10289000110E3A6F01EE14F0EECF29F0EDCF2AF0D1
:1028A000290EE8CF35F0000EE8CF36F0A6EC4AF05E
:1028B000040E0001356F366B0C0E376F386B396BB9
:1028C000940E3A6F0E0E3B6F64EC49F00001940ECB
:1028D000356F0E0E366F376B386B640E396F3A6B8F
:1028E0009AEC51F00001940E376F0E0E386FAB0E5C
:1028F000396F110E3A6F01EE16F0EECF29F0EDCFE1
:102900002AF0290EE8CF35F0000EE8CF36F0A6EC1D
:102910004AF00FEF35F064EC48F00001940E356F8B
:102920000E0E366F376B386B640E396F3A6B9AEC5C
:1029300051F00001940E376F0E0E386F300E396F64
:10294000130E3A6FA6EC4AF00001356B366B200E81
:10295000376F386B396B940E3A6F0E0E3B6F64EC29
:1029600049F018C0E8FF060A0001940E356F0E0EFC
:10297000D8A48FD0366F376B386B640E396F3A6BD3
:102980009AEC51F00001940E376F0E0E386F210E45
:10299000396F120E3A6F01EE18F0EECF29F0EDCF3D
:1029A0002AF0290EE8CF35F0000EE8CF36F0A6EC7D
:1029B0004AF0020E0001356F366B080E376F386B28
:1029C000396B940E3A6F0E0E3B6F64EC49F00001C8
:1029D000940E356F0E0E366F376B386B640E396F91
:1029E0003A6B9AEC51F00001940E376F0E0E386F6F
:1029F000130E396F120E3A6F01EE1AF0EECF29F076
:102A0000EDCF2AF0290EE8CF35F0000EE8CF36F0F2
:102A1000A6EC4AF0040E0001356F366B080E376FD6
:102A2000386B396B940E3A6F0E0E3B6F64EC49F0C5
:102A30000001940E356F0E0E366F376B386B640ED7
:102A4000396F3A6B9AEC51F00001940E376F0E0E0D
:102A5000386F050E396F120E3A6F01EE1CF0EECF93
:102A600029F0EDCF2AF0290EE8CF35F0000EE8CF9F
:102A700036F0A6EC4AF0060E0001356F366B080EF4
:102A8000376F386B396B940E3A6F0E0E3B6F64EFF5
:102A900049F0366F376B386B640E396F3A6B9AECCE
:102AA00051F00001940E376F0E0E386F2F0E396FF4
:102AB000120E3A6F01EE18F0EECF29F0EDCF2AF0AA
:102AC000290EE8CF35F0000EE8CF36F0A6EC4AF03C
:102AD000030ED2D764EC48F00001940E356F0E0E51
:102AE000366F376B386B640E396F3A6B9AEC51F076
:102AF0000001940E376F0E0E386F270E396F130ECC
:102B00003A6FA6EC4AF00001356B366B200E376F3A
:102B1000386B396B940E3A6F0E0E3B6F64EC49F0D4
:102B20000001940E356F0E0E366F376B386B640EE6
:102B3000396F3A6B9AEC51F001011E511F11D8A464
:102B40000CD00001940E376F0E0E386F3E0E396FA9
:102B5000120E3A6FA6EC4AF023D001011E51010A71
:102B60001F11D8A40CD00001940E376F0E0E386FD1
:102B70004C0E396F120E3A6FA6EC4AF011D00101DB
:102B80001E51020A1F11D8A40BD00001940E376FFA
:102B90000E0E386F5A0E396F120E3A6FA6EC4AF0CD
:102BA000020E0001356F366B0C0E376F386B396BC8
:102BB000940E3A6F0E0E3B6F64EC49F00001940ED8
:102BC000356F0E0E366F376B386B640E396F3A6B9C
:102BD0009AEC51F00001940E376F0E0E386F020E12
:102BE000396F110E3A6F22C129F02A6B290EE8CFF6
:102BF00035F0000EE8CF36F0A6EC4AF0040E10EFE8
:102C000035F00001940E356F0E0E366F376B386B52
:102C1000640E396F3A6B9AEC51F00001940E376FE5
:102C20000E0E386F0C0E396F130E3A6FA6EC4AF089
:102C30000001356B366B080E376F386B396B940EAD
:102C40003A6F0E0E3B6F64EC49F00001940E356F45
:102C50000E0E366F376B386B640E396F3A6B9AEC29
:102C600051F00001940E376F0E0E386FFC0E396F65
:102C7000120E3A6FA6EC4AF0020E0001356F366B69
:102C8000080E376F386B396B940E3A6F0E0E3B6F30
:102C900064EC49F00001940E356F0E0E366F376B01
:102CA000386B640E396F3A6B9AEC51F00001940E58
:102CB000376F0E0E386FDC0E396F120E3A6FA6ECBE
:102CC0004AF0040E0001356F366B080E376F386B13
:102CD000396B940E3A6F0E0E3B6F64EC49F00001B5
:102CE000940E356F0E0E366F376B386B640E396F7E
:102CF0003A6B9AEC51F00001940E376F0E0E386F5C
:102D0000EC0E396F120E3A6FA6EC4AF0060E000177
:102D1000356F366B080E376F386B396B940E3A6F20
:102D20000E0E3B6F64EC49F068D00001940E356FD5
:102D30000E0E366F376B386B640E396F3A6B9AEC48
:102D400051F00001940E376F0E0E386F930E396FED
:102D5000130E3A6FA6EC4AF089EF22F00001940EB0
:102D6000356F0E0E366F376B386B640E396F3A6BFA
:102D70009AEC51F00001940E376F0E0E386F930EDF
:102D8000396F130E3A6FA6EC4AF0020E0001356F50
:102D9000366B100E75D60001940E356F0E0E366F21
:102DA000376B386B640E396F3A6B9AEC51F0000157
:102DB000940E376F0E0E386F930E396F130E3A6FF5
:102DC000A6EC4AF05AEF1DF00001940E356F0E0E7E
:102DD000366F376B386B640E396F3A6B9AEC51F083
:102DE0000001940E376F0E0E386F930E396F130E6D
:102DF0003A6FA6EC4AF074EF1DF001EE25F0EECF2D
:102E000002F0EDCF03F009D002508FE0010AA6E0F6
:102E1000030AC1E0010AD8E012000350F5E01200F5
:102E20000101252B000E26232651800A800F040E57
:102E3000D8B4255DD8A035EF22F0256B266B35EF91
:102E400022F001012507000E265B26AF35EF22F0A8
:102E5000030E256F266B35EF22F01AD0090EE8CF4E
:102E600024F164EC48F02DD00E0EE8CF24F164EC90
:102E700048F0D3D3180EE8CF24F164EC48F0E8EF23
:102E80001DF01D0EE8CF24F164EC48F092EF1FF026
:102E900001EE25F0EECF02F0EDCF03F009D00250A5
:102EA000DDE0010AE1E0030AE5E0010AEAE01200E0
:102EB0000350F5E012000101256B266B246B20EF17
:102EC00013F0010127512811D8A418D097C106F199
:102ED00098C107F199C108F19AC109F19BC10AF1A2
:102EE0009CC10BF19DC10CF19EC10DF19FC10EF172
:102EF000A0C10FF1A1C110F1A2C111F10001940E06
:102F0000356F0E0E366F376B386B640E396F3A6B58
:102F10009AEC51F00001940E376F0E0E386FC10E0F
:102F2000396F130E3A6FA6EC4AF00001356B366B21
:102F3000200E376F386B396B940E3A6F0E0E3B6F65
:102F400064EC49F00001940E356F0E0E366F376B4E
:102F5000386B640E396F3A6B9AEC51F00001940EA5
:102F6000376F0E0E386F400E396F110E3A6F01EE4B
:102F70000CF0EECF2EF0EDCF2FF001EE0EF0EECFF5
:102F80002CF0EDCF2DF001EE10F0EECF2AF0EDCFCA
:102F90002BF02A0EE8CF35F0000EE8CF36F0A6EC85
:102FA0004AF0030E0001356F366B180E376F386B21
:102FB000396B940E3A6F0E0E3B6F64EC49F00001D2
:102FC000940E356F0E0E366F376B386B640E396F9B
:102FD0003A6B9AEC51F00001940E376F0E0E386F79
:102FE000180E396F110E3A6F06C12EF007C12FF07F
:102FF00001EE08F0EECF2CF0EDCF2DF001EE0AF04F
:10300000EECF2AF0EDCF2BF02A0EE8CF35F0000EF0
:10301000E8CF36F0A6EC4AF0050E0001356F366BAE
:10302000280E376F386B396B940E3A6F0E0E3B6F6C
:1030300064EC49F0E8D00001940E356F0E0E366F47
:10304000376B386B640E396F3A6B9AEC51F00001B4
:10305000940E376F0E0E386F4C0E396F110E3A6F9B
:1030600001EE10F0EECF2EF0EDCF2FF02E0EE8CFC8
:1030700035F0000EE8CF36F0A6EC4AF0030E1AEF5A
:1030800023F00001940E356F0E0E366F376B386BE0
:10309000640E396F3A6B9AEC51F00001940E376F61
:1030A0000E0E386F4C0E396F110E3A6F01EE0EF0A6
:1030B000EECF2EF0EDCF2FF02E0EE8CF35F0000E34
:1030C000E8CF36F0A6EC4AF0030E6FD00001940E64
:1030D000356F0E0E366F376B386B640E396F3A6B87
:1030E0009AEC51F00001940E376F0E0E386F4C0EB3
:1030F000396F110E3A6F01EE0CF0EECF2EF0EDCFDE
:103100002FF02E0EE8CF35F0000EE8CF36F0A6EC0B
:103110004AF0030E72D00001940E356F0E0E366F1A
:10312000376B386B640E396F3A6B9AEC51F00001D3
:10313000940E376F0E0E386F4C0E396F110E3A6FBA
:1031400001EE0AF0EECF2EF0EDCF2FF02E0EE8CFED
:1031500035F0000EE8CF36F0A6EC4AF0050E1AEF77
:1031600023F00001940E356F0E0E366F376B386BFF
:10317000640E396F3A6B9AEC51F00001940E376F80
:103180000E0E386F4C0E396F110E3A6F01EE08F0CB
:10319000EECF2EF0EDCF2FF02E0EE8CF35F0000E53
:1031A000E8CF36F0A6EC4AF0050E0001356F366B1D
:1031B000400EC4EF32F00001940E356F0E0E366FE4
:1031C000376B386B640E396F3A6B9AEC51F0000133
:1031D000940E376F0E0E386F4C0E396F110E3A6F1A
:1031E00006C12EF007C12FF02E0EE8CF35F0000EED
:1031F000E8CF36F0A6EC4AF0050E0001356F366BCD
:10320000580EC4EF32F001EE27F0EECF02F0EDCF12
:1032100003F012D00250010A01E10DD7030A01E1C7
:1032200030D7010A01E152D7070A01E174D7010A38
:1032300098E0030AC0E012000350ECE012005AD0FC
:103240000101102B000E11231151800A800F640E12
:10325000D8B4105DD8A0D8D1106B116BD5D10101B5
:103260000E2B000E0F230F51800A800F0D0ED8B4C5
:103270000E5DD8A0C9D10E6B0F6BC6D101010C2B0E
:10328000000E0D230D51800A800F1F0ED8B40C5D67
:10329000D8A0BAD10C6B0D6BB7D101010A2B000E6F
:1032A0000B230B51800A800F180ED8B40A5DD8A0EA
:1032B000ABD10A6B0B6BA8D10101082B000E0923BF
:1032C0000951800A800F3C0ED8B4085DD8A09CD16B
:1032D000086B096B99D10101062B000E07230751DA
:1032E000800A800F3C0ED8B4065DD8A08DD1066B45
:1032F000076B8AD101EE27F0EECF02F0EDCF03F09D
:103300000ED00250010A9CE0030AA9E0010AB6E0CF
:10331000070AC3E0010AD0E0030ADDE075D10350DB
:10332000F0E072D13CD001011007000E115B11AF2B
:103330006BD1630E106F116B67D101010E07000E88
:103340000F5B0FAF61D10C0E0E6F0F6B5DD10101E2
:103350000C07000E0D5B0DAF57D11E0E0C6F0D6BE1
:1033600053D101010A07000E0B5B0BAF4DD1170EB5
:103370000A6F0B6B49D101010807000E095B09AF09
:1033800043D13B0E086F096B3FD101010607000EC8
:10339000075B07AF39D13B0E066F076B35D101EEE6
:1033A00027F0EECF02F0EDCF03F00ED00250010A6D
:1033B000BAE0030AC2E0010ACAE0070AD2E0010A41
:1033C000DAE0030AE2E020D10350F0E01DD1ECD0B6
:1033D0000A0E026E036A01EE10F0EECF00F0EDCFA0
:1033E00001F0CAEC51F004500001296F293BF00EA6
:1033F00029170A0E026E036A01EE10F0EECF00F0FC
:10340000EDCF01F0CAEC51F0005029278C0E2A6F45
:1034100029511EEC4EF010C1A1F111C1A2F1DFD073
:103420000A0E026E036A01EE0EF0EECF00F0EDCF51
:1034300001F0CAEC51F004500001296F293BF00E55
:1034400029170A0E026E036A01EE0EF0EECF00F0AD
:10345000EDCF01F0CAEC51F000502927880E2A6FF9
:1034600029511EEC4EF00EC19FF10FC1A0F1B7D053
:103470000A0E026E036A01EE0CF0EECF00F0EDCF03
:1034800001F0CAEC51F004500001296F293BF00E05
:1034900029170A0E026E036A01EE0CF0EECF00F05F
:1034A000EDCF01F0CAEC51F000502927860E2A6FAB
:1034B00029511EEC4EF00CC19DF10DC19EF18FD033
:1034C0000A0E026E036A01EE0AF0EECF00F0EDCFB5
:1034D00001F0CAEC51F004500001296F293BF00EB5
:1034E00029170A0E026E036A01EE0AF0EECF00F011
:1034F000EDCF01F0CAEC51F000502927840E2A6F5D
:1035000029511EEC4EF00AC19BF10BC19CF167D012
:103510000A0E026E036A01EE08F0EECF00F0EDCF66
:1035200001F0CAEC51F004500001296F293BF00E64
:1035300029170A0E026E036A01EE08F0EECF00F0C2
:10354000EDCF01F0CAEC51F000502927820E2A6F0E
:1035500029511EEC4EF008C199F109C19AF13FD0F2
:103560000A0E026E036A06C100F007C101F0CAEC40
:1035700051F004500001296F293BF00E29170A0E63
:10358000026E036A06C100F007C101F0CAEC51F0F7
:1035900000502927800E2A6F29511EEC4EF006C1DB
:1035A00097F107C198F11BD001EE27F0EECF02F0A2
:1035B000EDCF03F012D00250010A01E109D7030A4E
:1035C00001E12ED7010A01E153D7070A01E178D7BB
:1035D000010A9EE0030AC4E002D00350ECE00101BE
:1035E000272B000E28232851800A800F070ED8B4FD
:1035F000275DD8A009D0276B286B040EE8CF24F1F3
:1036000064EC48F001EF16F0090EE8CF24F159D42C
:103610000101276B286B35EF22F00001940E356F06
:103620000E0E366F376B386B640E396F3A6B9AEC4F
:1036300051F00001940E376F0E0E386F3C0E396F4B
:10364000130E3A6FA6EC4AF0010E0001356F366B8F
:10365000200E376F386B396B940E3A6F0E0E3B6F3E
:1036600064EC49F00001940E356F0E0E366F376B27
:10367000386B640E396F3A6B9AEC51F00001940E7E
:10368000376F0E0E386F560E396F110E3A6F01EE0E
:1036900039F0EECF33F0EDCF34F001EE37F0EECF6E
:1036A00031F0EDCF32F001EE35F0EECF2FF0EDCF6F
:1036B00030F001EE33F0EECF2DF0EDCF2EF001EE35
:1036C00031F0EECF2BF0EDCF2CF001EE2FF0EECF5E
:1036D00029F0EDCF2AF0290EE8CF35F0000EE8CF23
:1036E00036F0A6EC4AF0040E0001356F366B280E5A
:1036F000376F386B396B940E3A6F0E0E3B6F64EC7C
:1037000049F00001940E356F0E0E366F376B386B33
:10371000640E396F3A6B9AEC51F00001940E376FDA
:103720000E0E386F600E396F110E3A6F3BC1E8FF15
:10373000020D2F0EF324E96E010EF420EA6EEECF97
:1037400033F0EDCF34F0330EE8CF35F0000EE8CF94
:1037500036F0A6EC4AF0040E0001356F366B3BC123
:1037600000F0016AD89000360136D8900036013654
:10377000D89000360136280E0024376F000E012045
:10378000386F010E396F43EF15F03BC1E8FF020DB2
:103790002F0EF324E96E010EF420EA6EEE2A000EDD
:1037A000ED223BC1E8FF020D2F0EF324E96E010E5E
:1037B000F420EA6EEE500A0AED10D8A40BD03BC1FB
:1037C000E8FF020D2F0EF324E96E010EF420EA6EDD
:1037D000EE6AED6A0E0EE8CF24F11FD73BC1E8FF79
:1037E000020D2F0EF324E96E010EF420EA6EEE06B0
:1037F000000EED5A3BC1E8FF020D2F0EF324E96ED7
:10380000010EF420EA6EEECF00F0EDCF01F001AE34
:10381000E1D73BC1E8FF020D2F0EF324E96E010E44
:10382000F420EA6E090EEE6ED4D701013B2B3BC1AA
:10383000E8FF060AD8A4CED729C100F0016A30C13A
:10384000E8FF011803E12FC1E8FF0018D8A444D015
:103850002AC100F0016A32C1E8FF011803E131C159
:10386000E8FF0018D8A438D02BC100F0016A34C199
:10387000E8FF011803E133C1E8FF0018D8A42CD0F9
:103880002CC100F0016A36C1E8FF011803E135C11F
:10389000E8FF0018D8A420D02DC100F0016A38C17B
:1038A000E8FF011803E137C1E8FF0018D8A414D0DD
:1038B00001012F6B306B316B326B336B346B356BBB
:1038C000366B376B386B396B3A6B3B6B130EE8CF4B
:1038D00024F164EC48F011D001012F6B306B316B97
:1038E000326B336B346B356B366B376B386B396BD4
:1038F0003A6B3B6B6FD727EF22F00001940E356FC8
:103900000E0E366F376B386B640E396F3A6B9AEC6C
:1039100051F00001940E376F0E0E386FCA0E396FDA
:10392000130E3A6FA6EC4AF00001356B366B100EA1
:10393000376F386B396B940E3A6F0E0E3B6F64EC39
:1039400049F00001940E356F0E0E366F376B386BF1
:10395000640E396F3A6B9AEC51F00001940E376F98
:103960000E0E386FD70E396F130E3A6FA6EC4AF071
:10397000020E0001356F366B100E376F386B396BE6
:10398000940E3A6F0E0E3B6F64EC49F00001940EFA
:10399000356F0E0E366F376B386B640E396F3A6BBE
:1039A0009AEC51F00001940E376F0E0E386FFC0E3A
:1039B000396F130E3A6FA6EC4AF0040E0001356F12
:1039C000366B100E376F386B396B940E3A6F0E0EE4
:1039D0003B6F64EC49F00001940E356F0E0E366FAC
:1039E000376B386B640E396F3A6B9AEC51F000010B
:1039F000940E376F0E0E386FF10E396F130E3A6F4B
:103A0000A6EC4AF0060E0001356F366B100E376FCC
:103A1000386B396B940E3A6F0E0E3B6F64EC49F0C5
:103A200066D00001940E356F0E0E366F376B386B13
:103A3000640E396F3A6B9AEC51F00001940E376FB7
:103A40000E0E386F930E396F130E3A6FA6EC4AF0D4
:103A500089EF22F00001940E356F0E0E366F376B32
:103A6000386B640E396F3A6B9AEC51F00001940E8A
:103A7000376F0E0E386F930E396F130E3A6FA6EC38
:103A80004AF0C5EF16F00001940E356F0E0E366F3A
:103A9000376B386B640E396F3A6B9AEC51F000015A
:103AA000940E376F0E0E386F930E396F130E3A6FF8
:103AB000A6EC4AF0040EC6EF16F00001940E356F26
:103AC0000E0E366F376B386B640E396F3A6B9AECAB
:103AD00051F00001940E376F0E0E386F930E396F50
:103AE000130E3A6FA6EC4AF0060EC6EF16F001EE82
:103AF00048F0EECF02F0EDCF03F009D0025091E094
:103B0000010AA8E0030ABFE0010AD7E0120003504F
:103B1000F5E012000101482B000E49234851040A28
:103B20004911D8A417D0290EE8CF24F164EC48F04D
:103B300070EF22F001014807000E495B49AF0AD03F
:103B4000040E486F496B290EE8CF24F164EC48F06D
:103B500070EF22F0130EE8CF24F1CFD61CD02E0E3A
:103B6000E8CF24F164EC48F0B3EF22F0330EE8CF55
:103B700024F164EC48F059EF23F0380EE8CF24F13B
:103B800064EC48F0C6EF23F03D0EE8CF24F164EC7E
:103B900048F0F4EF2AF001EE48F0EECF02F0EDCF5E
:103BA00003F009D00250DBE0010AE0E0030AE5E09F
:103BB000010AEAE012000350F5E012000101486B2F
:103BC000496B040EE8CF24F164EC48F001EF16F0E5
:103BD00001EE3CF0EF50D8B472D1070E026E036ACA
:103BE00001EE3DF0EECF00F0EDCF01F0EFEC51F043
:103BF000180E042400012F6F000E0520306F0AEC10
:103C000005F0E8CF41F1070E026E036A01EE3DF0C8
:103C1000EECF00F0EDCF01F0EFEC51F0190E0424DF
:103C200000012F6F000E0520306F0AEC05F0E8CF81
:103C300042F1070E026E036A01EE3DF0EECF00F096
:103C4000EDCF01F0EFEC51F01A0E042400012F6FBC
:103C5000000E0520306F0AEC05F0E8CF43F1070EA7
:103C6000026E036A01EE3DF0EECF00F0EDCF01F001
:103C7000EFEC51F01B0E042400012F6F000E052005
:103C8000306F0AEC05F0E8CF44F1070E026E036ACC
:103C900001EE3DF0EECF00F0EDCF01F0EFEC51F092
:103CA0001C0E042400012F6F000E0520306F0AEC5B
:103CB00005F0E8CF45F1070E026E036A01EE3DF014
:103CC000EECF00F0EDCF01F0EFEC51F01D0E04242B
:103CD00000012F6F000E0520306F0AEC05F0E8CFD1
:103CE00046F1070E026E036A01EE3DF0EECF00F0E2
:103CF000EDCF01F0EFEC51F01E0E042400012F6F08
:103D0000000E0520306F0AEC05F0E8CF47F1000106
:103D1000940E356F0E0E366F376B386B640E396F3D
:103D20003A6B9AEC51F00001940E376F0E0E386F1B
:103D3000270E396F110E3A6F3CC12DF02E6B01EE3C
:103D40003DF0EECF2BF0EDCF2CF02B0EE8CF35F081
:103D5000000EE8CF36F0A6EC4AF00001356B366B6A
:103D6000376B386B396B940E3A6F0E0E3B6F64EC09
:103D700049F00001940E356F0E0E366F376B386BBD
:103D8000640E396F3A6B9AEC51F001EE41F0EF504E
:103D9000D8A40CD00001940E376F0E0E386F690E48
:103DA000396F130E3A6FA6EC4AF021D041C100F0F2
:103DB0000004D8A40CD00001940E376F0E0E386F9B
:103DC000770E396F130E3A6FA6EC4AF010D041C14E
:103DD000E8FF020AD8A40BD00001940E376F0E0E34
:103DE000386F850E396F130E3A6FA6EC4AF0020E4B
:103DF0000001356F366B376B386B396B940E3A6F49
:103E00000E0E3B6F64EC49F00001940E356F0E0E00
:103E1000366F376B386B640E396F3A6B9AEC51F032
:103E20000001940E376F0E0E386F3B0E396F110E76
:103E30003A6F44C12DF02E6B43C12BF02C6B42C165
:103E400029F02A6B290EE8CF35F0000EE8CF36F0C6
:103E5000A6EC4AF0040E0001356F366B376B386BF9
:103E6000396B940E3A6F0E0E3B6F64EC49F0000113
:103E7000940E356F0E0E366F376B386B640E396FDC
:103E80003A6B9AEC51F00001940E376F0E0E386FBA
:103E9000110E396F110E3A6F47C12DF02E6B46C1CE
:103EA0002BF02C6B45C129F02A6B290EE8CF35F099
:103EB000000EE8CF36F0A6EC4AF0060EF3D2280E3C
:103EC000E8CF24F164EC48F0F3D201013D2B000E61
:103ED0003E233CC100F0016A3EC1E8FF011803E146
:103EE0003DC1E8FF0018D8A414D03D6B3E6B11D043
:103EF00001013D07000E3E5B3EAF0BD03CC100F020
:103F0000016AFF0E0024E8CF3DF1FF0E0120E8CF4B
:103F10003EF1180EE8CF24F15BD6180EE8CF24F15D
:103F20001200A3D20001940E356F0E0E366F376B60
:103F3000386B640E396F3A6B9AEC51F00001940EB5
:103F4000376F0E0E386F3C0E396F130E3A6FA6ECBA
:103F50004AF0010E0001356F366B200E376F386B5B
:103F6000396B940E3A6F0E0E3B6F64EC49F0000112
:103F7000940E356F0E0E366F376B386B640E396FDB
:103F80003A6B9AEC51F00001940E376F0E0E386FB9
:103F9000560E396F110E3A6F01EE39F0EECF33F055
:103FA000EDCF34F001EE37F0EECF31F0EDCF32F05F
:103FB00001EE35F0EECF2FF0EDCF30F001EE33F023
:103FC000EECF2DF0EDCF2EF001EE31F0EECF2BF055
:103FD000EDCF2CF001EE2FF0EECF29F0EDCF2AF04F
:103FE000290EE8CF35F0000EE8CF36F0A6EC4AF007
:103FF000040E0001356F366B280E376F386B396B46
:10400000940E3A6F0E0E3B6F64EC49F00001940E73
:10401000356F0E0E366F376B386B640E396F3A6B37
:104020009AEC51F00001940E376F0E0E386F600E4F
:10403000396F110E3A6F3BC1E8FF020D2F0EF324CA
:10404000E96E010EF420EA6EEECF33F0EDCF34F0DE
:10405000330EE8CF35F0000EE8CF36F0A6EC4AF08C
:10406000ABEF1BF03BC1E8FF020D2F0EF324E96E0E
:10407000010EF420EA6EEE2A000EED223BC1E8FFAD
:10408000020D2F0EF324E96E010EF420EA6EEE50BD
:104090000A0AED10D8A40BD03BC1E8FF020D2F0E89
:1040A000F324E96E010EF420EA6EEE6AED6A1D0E4D
:1040B000E8CF24F137D73BC1E8FF020D2F0EF324E0
:1040C000E96E010EF420EA6EEE06000EED5A3BC1D9
:1040D000E8FF020D2F0EF324E96E010EF420EA6EC4
:1040E000EE52ED1CFF0ED8B4EF18D8A4E0D73BC1B8
:1040F000E8FF020D2F0EF324E96E010EF420EA6EA4
:10410000090EEE6ED3D701013B2B3BC1E8FF060A37
:10411000D8A4CDD729C100F0016A30C1E8FF011849
:1041200003E12FC1E8FF0018D8A43FD02AC100F056
:10413000016A32C1E8FF011803E131C1E8FF00184C
:10414000D8A433D02BC100F0016A34C1E8FF0118B4
:1041500003E133C1E8FF0018D8A427D02CC100F038
:10416000016A36C1E8FF011803E135C1E8FF001814
:10417000D8A41BD02DC100F0016A38C1E8FF011896
:1041800003E137C1E8FF0018D8A40FD001012F6B5D
:10419000306B316B326B336B346B356B366B376B2B
:1041A000386B396B3A6B3B6BD5D001012F6B306BA1
:1041B000316B326B336B346B356B366B376B386B03
:1041C000396B3A6B3B6B73D742D10001940E356F5C
:1041D0000E0E366F376B386B640E396F3A6B9AEC94
:1041E00051F00001940E376F0E0E386F450E396F87
:1041F000130E3A6FA6EC4AF0010E0001356F366BD4
:10420000200E376F386B396B940E3A6F0E0E3B6F82
:1042100064EC49F00001940E356F0E0E366F376B6B
:10422000386B640E396F3A6B9AEC51F00001940EC2
:10423000376F0E0E386F560E396F110E3A6F01EE52
:1042400039F0EECF33F0EDCF34F001EE37F0EECFB2
:1042500031F0EDCF32F001EE35F0EECF2FF0EDCFB3
:1042600030F001EE33F0EECF2DF0EDCF2EF001EE79
:1042700031F0EECF2BF0EDCF2CF001EE2FF0EECFA2
:1042800029F0EDCF2AF0290EE8CF35F0000EE8CF67
:1042900036F0A6EC4AF0040E0001356F366B280E9E
:1042A000376F386B396B940E3A6F0E0E3B6F64ECC0
:1042B00049F00001940E356F0E0E366F376B386B78
:1042C000640E396F3A6B9AEC51F00001940E376F1F
:1042D0000E0E386F600E396F110E3A6F3BC1E8FF5A
:1042E000020D2F0EF324E96E010EF420EA6EEECFDC
:1042F00033F0EDCF34F0330EE8CF35F0000EE8CFD9
:1043000036F0A6EC4AF0ABEF1BF03BC1E8FF020D24
:104310002F0EF324E96E010EF420EA6EEE2A000E51
:10432000ED223BC1E8FF020D2F0EF324E96E010ED2
:10433000F420EA6EEE500A0AED10D8A40BD03BC16F
:10434000E8FF020D2F0EF324E96E010EF420EA6E51
:10435000EE6AED6A220EE8CF24F137D73BC1E8FFC1
:10436000020D2F0EF324E96E010EF420EA6EEE0624
:10437000000EED5A3BC1E8FF020D2F0EF324E96E4B
:10438000010EF420EA6EEECF00F0EDCF01F001AEA9
:10439000E1D73BC1E8FF020D2F0EF324E96E010EB9
:1043A000F420EA6E090EEE6ED4D701013B2B3BC11F
:1043B000E8FF060AD8A4CED72FC129F131C12AF1CE
:1043C00033C12BF135C12CF137C12DF139C12EF19B
:1043D000030E00012B6F2C6B29C12DF0F2EC04F0C1
:1043E000040E00012B6F2C6B2AC12DF0F2EC04F0AF
:1043F000050E00012B6F2C6B2BC12DF0F2EC04F09D
:10440000060E00012B6F2C6B2CC12DF0F2EC04F08A
:10441000070E00012B6F2C6B2DC12DF0F2EC04F078
:10442000080E00012B6F2C6B2EC12DF0F2EC04F066
:1044300001013B6B2F6B306B316B326B336B346B29
:10444000356B366B376B386B396B3A6B0ED00101BD
:104450002F6B306B316B326B336B346B356B366B70
:10446000376B386B396B3A6B3B6B040EE8CF24F13A
:1044700001EF16F00001940E356F0E0E366F376B9C
:10448000386B640E396F3A6B9AEC51F00001940E60
:10449000376F0E0E386F680E396F120E3A6FA6EC3A
:1044A0004AF0030E0001356F366B376B41EF15F0A4
:1044B0000001940E356F0E0E366F376B386B640E3D
:1044C000396F3A6B9AEC51F00001940E376F0E0E73
:1044D000386F780E396F120E3A6FA6EC4AF0E1D7BA
:1044E0000001940E356F0E0E366F1C0E376F130ED3
:1044F000386F640E396F3A6B9AEC51F00001940EEC
:10450000376F0E0E386FE20E396F130E3A6FA6EC4E
:104510004AF00001356BC8EF16F00101486B496B9A
:10452000130EE8CF24F164EC48F07DEF1CF001019C
:10453000030E486F496B130EE8CF24F164EC48F08A
:104540007DEF1CF0420EE8CF24F164EC48F01AEF46
:1045500032F0040EE8CF24F10101256B266B64ECE8
:1045600048F001EF16F00001940E356F0E0E366F15
:10457000376B386B640E396F3A6B9AEC51F000016F
:10458000940E376F0E0E386FCC0E396F130E3A6FD4
:10459000A6EC4AF0020E0001356F366B180E376F2D
:1045A000386B396B940E3A6F0E0E3B6F64EC49F02A
:1045B0000001940E356F0E0E366F376B386B640E3C
:1045C000396F3A6B9AEC51F024D00001940E376F9A
:1045D0000E0E386F450E396F120E3A6FA6EC4AF088
:1045E00028D00001940E376F0E0E386F530E396FBE
:1045F000120E3A6FA6EC4AF01CD00001940E376FF1
:104600000E0E386F610E396F120E3A6FA6EC4AF03B
:1046100010D001EE20F0EECF02F0EDCF03F007D086
:104620000250D3E0010ADDE0030AE7E002D00350C4
:10463000F7E0040E0001356F366B280EC4EF32F040
:104640000101202B000E21232051030A2111D8A49F
:104650000CD0206B216B09D001012007000E215BDB
:1046600021AF03D0020E206F216B2E0EE8CF24F174
:104670007AD720C11EF121C11FF1020E00012B6F5C
:104680002C6B1EC12DF0F2EC04F07DEC44F0130E07
:10469000E8CF24F164EC48F07DEF1CF01EC120F15E
:1046A0001FC121F1130EE8CF24F164EC48F07DEF37
:1046B0001CF00001940E356F0E0E366F376B386BA1
:1046C000640E396F3A6B9AEC51F00001940E376F1B
:1046D0000E0E386FD90E396F130E3A6FA6EC4AF0F2
:1046E000020E0001356F366B200E376F386B396B59
:1046F000940E3A6F0E0E3B6F64EC49F00001940E7D
:10470000356F0E0E366F376B386B640E396F3A6B40
:104710009AEC51F00001940E376F0E0E386F0C0EAC
:10472000396F110E3A6F23C129F02A6B290EE8CF99
:1047300035F0000EE8CF36F0A6EC4AF02C0E000162
:10474000356F366B200EC4EF32F00101232B02D0FF
:1047500001012307330EE8CF24F1ABD723C122F1A7
:10476000010E00012B6F2C6B22C12DF0F2EC04F036
:10477000130EE8CF24F164EC48F07DEF1CF0130E2B
:10478000E8CF24F164EC48F07DEF1CF00001940EBA
:10479000356F0E0E366F376B386B640E396F3A6BB0
:1047A0009AEC51F00001940E376F0E0E386FB40E74
:1047B000396F130E3A6FA6EC4AF00001356B366B79
:1047C000100E376F386B396B940E3A6F0E0E3B6FCD
:1047D00064EC49F00001940E356F0E0E366F376BA6
:1047E000386B640E396F3A6B9AEC51F00001940EFD
:1047F000376F0E0E386F830E396F110E3A6F01EE60
:104800004CF0EECF29F0EDCF2AF0290EE8CF35F0AD
:10481000000EE8CF36F0A6EC4AF0020E0001356F2C
:10482000366B040E376F386B396B940E3A6F0E0E81
:104830003B6F64EC49F00001940E356F0E0E366F3D
:10484000376B386B640E396F3A6B9AEC51F000019C
:10485000940E376F0E0E386F630E396F110E3A6F6C
:1048600001EE4EF0EECF29F0EDCF2AF0290EE8CF81
:1048700035F0000EE8CF36F0A6EC4AF0040E000149
:10488000356F366B040E376F386B396B940E3A6F99
:104890000E0E3B6F64EC49F00001940E356F0E0E66
:1048A000366F376B386B640E396F3A6B9AEC51F098
:1048B0000001940E376F0E0E386F730E396F110EA4
:1048C0003A6F01EE50F0EECF29F0EDCF2AF0290E2D
:1048D000E8CF35F0000EE8CF36F0A6EC4AF0060E31
:1048E0000001356F366B040E376F386B396B940EE1
:1048F0003A6F0E0E3B6F64EC49F0D0D10001940E7C
:10490000356F0E0E366F376B386B640E396F3A6B3E
:104910009AEC51F00001940E376F0E0E386F510E65
:10492000396F110E3A6F01EE52F0EECF29F0EDCF54
:104930002AF0290EE8CF35F0000EE8CF36F0A6ECCD
:104940004AF0020E93D00001940E356F0E0E366FB2
:10495000376B386B640E396F3A6B9AEC51F000018B
:10496000940E376F0E0E386F510E396F110E3A6F6D
:1049700001EE52F0EECF29F0EDCF2AF0290EE8CF6C
:1049800035F0000EE8CF36F0A6EC4AF0020E98D0D3
:104990000001940E356F0E0E366F376B386B640E58
:1049A000396F3A6B9AEC51F00001940E376F0E0E8E
:1049B000386F510E396F110E3A6F01EE52F0EECF93
:1049C00029F0EDCF2AF0290EE8CF35F0000EE8CF20
:1049D00036F0A6EC4AF0020E9DD00001940E356F21
:1049E0000E0E366F376B386B640E396F3A6B9AEC7C
:1049F00051F00001940E376F0E0E386F510E396F63
:104A0000110E3A6F01EE52F0EECF29F0EDCF2AF001
:104A1000290EE8CF35F0000EE8CF36F0A6EC4AF0CC
:104A2000020EA2D00001940E356F0E0E366F376B5A
:104A3000386B640E396F3A6B9AEC51F00001940EAA
:104A4000376F0E0E386F510E396F110E3A6F01EE3F
:104A500052F0EECF29F0EDCF2AF0290EE8CF35F055
:104A6000000EE8CF36F0A6EC4AF0040E0001356FD8
:104A7000366B540EC4EF32F00001940E356F0E0EFB
:104A8000366F376B386B640E396F3A6B9AEC51F0B6
:104A90000001940E376F0E0E386F510E396F110EE4
:104AA0003A6F01EE52F0EECF29F0EDCF2AF0290E49
:104AB000E8CF35F0000EE8CF36F0A6EC4AF0040E51
:104AC0000001356F366B5C0EC4EF32F00001940EBE
:104AD000356F0E0E366F376B386B640E396F3A6B6D
:104AE0009AEC51F00001940E376F0E0E386F510E94
:104AF000396F110E3A6F01EE52F0EECF29F0EDCF83
:104B00002AF0290EE8CF35F0000EE8CF36F0A6ECFB
:104B10004AF0040E0001356F366B640EC4EF32F0BC
:104B20000001940E356F0E0E366F376B386B640EC6
:104B3000396F3A6B9AEC51F00001940E376F0E0EFC
:104B4000386F510E396F110E3A6F01EE52F0EECF01
:104B500029F0EDCF2AF0290EE8CF35F0000EE8CF8E
:104B600036F0A6EC4AF0040E0001356F366B6C0E81
:104B7000C4EF32F00001940E356F0E0E366F376BB6
:104B8000386B640E396F3A6B9AEC51F00001940E59
:104B9000376F0E0E386F510E396F110E3A6F01EEEE
:104BA00052F0EECF29F0EDCF2AF0290EE8CF35F004
:104BB000000EE8CF36F0A6EC4AF0060E57D70001FB
:104BC000940E356F0E0E366F376B386B640E396F7F
:104BD0003A6B9AEC51F00001940E376F0E0E386F5D
:104BE000510E396F110E3A6F01EE52F0EECF29F0EF
:104BF000EDCF2AF0290EE8CF35F0000EE8CF36F0E1
:104C0000A6EC4AF0060E5CD70001940E356F0E0E2E
:104C1000366F376B386B640E396F3A6B9AEC51F024
:104C20000001940E376F0E0E386F510E396F110E52
:104C30003A6F01EE52F0EECF29F0EDCF2AF0290EB7
:104C4000E8CF35F0000EE8CF36F0A6EC4AF0060EBD
:104C500061D70001940E356F0E0E366F376B386BCF
:104C6000640E396F3A6B9AEC51F00001940E376F75
:104C70000E0E386F510E396F110E3A6F01EE52F071
:104C8000EECF29F0EDCF2AF0290EE8CF35F0000E57
:104C9000E8CF36F0A6EC4AF0060E66D701EE54F0E7
:104CA000EECF02F0EDCF03F023D0025001E126D683
:104CB000010A01E148D6030A01E16AD6010A01E1CD
:104CC0008CD6070A01E1AED6010A01E1D5D6030A66
:104CD00001E1FCD6010A01E123D70F0A01E14AD71D
:104CE000010A01E16CD7030A8FE0010AB2E0120069
:104CF0000350DBE012000101522B000E53235351ED
:104D0000800A800F0A0ED8B4525DD8A0D1EF2AF0E5
:104D1000526B536BD1EF2AF001015207000E535B27
:104D200053AFD1EF2AF0090E526F536BD1EF2AF037
:104D3000A3EF2AF0E80E026E030E036E01EE4CF0B4
:104D4000EECF00F0EDCF01F0F2EC50F000C04CF1EE
:104D500001C04DF1E80E026E030E036E01EE52F03B
:104D6000EECF00F0EDCF01F0EFEC51F04CC1E8FFD9
:104D70000424E8CF4CF14DC1E8FF0520E8CF4DF108
:104D8000090E00012B6F2C6B4DC100F0016A005021
:104D90002D6FF2EC04F00A0E00012B6F2C6B4CC14E
:104DA0002DF0F2EC04F0640E026E036A01EE4CF09A
:104DB000EECF00F0EDCF01F0F2EC50F004C000F0C7
:104DC00005C001F00A0E026E036AF2EC50F000C05A
:104DD00052F101C053F152C104F153C105F1010177
:104DE000010E68D3640E026E036A04C100F005C1AF
:104DF00001F0EFEC51F001EE4CF0EECF00F0EDCF12
:104E000001F00450005CE8CF4CF105500158E8CFA8
:104E10004DF1640E026E036A01EE52F0EECF00F027
:104E2000EDCF01F0EFEC51F04CC1E8FF0424E8CFE6
:104E30004CF14DC1E8FF0520E8CF4DF1090E00010E
:104E40002B6F2C6B4DC100F0016A00502D6FF2ECFE
:104E500004F00A0E00012B6F2C6B4CC12DF0F2EC0C
:104E600004F00A0E026E036A01EE4CF0EECF00F081
:104E7000EDCF01F0F2EC50F004C000F005C001F0FD
:104E80000A0E026E036AF2EC50F000C052F101C04B
:104E900053F152C104F153C105F10101020E0AD3CD
:104EA0000A0E026E036A04C100F005C101F0EFECC6
:104EB00051F001EE4CF0EECF00F0EDCF01F00450D8
:104EC000005CE8CF4CF105500158E8CF4DF10A0ED7
:104ED000026E036A01EE52F0EECF00F0EDCF01F06A
:104EE000EFEC51F04CC1E8FF0424E8CF4CF14DC188
:104EF000E8FF0520E8CF4DF1090E00012B6F2C6B68
:104F00004DC100F0016A00502D6FF2EC04F00A0E62
:104F100000012B6F2C6B4CC12DF0F2EC04F00A0E4B
:104F2000026E036A01EE4CF0EECF00F0EDCF01F01F
:104F3000F2EC50F000C052F101C053F152C104F143
:104F400053C105F10101030EB5D2010104C1E8FF0F
:104F50004C5DE8CF4CF105C1E8FF4D59E8CF4DF16C
:104F600052C1E8FF4C25E8CF4CF153C1E8FF4D2179
:104F7000E8CF4DF1090E00012B6F2C6B4DC100F0F5
:104F8000016A00502D6FF2EC04F00A0E00012B6F45
:104F90002C6B4CC12DF0F2EC04F0E80E026E030E07
:104FA000036E01EE4EF0EECF00F0EDCF01F0F2EC2B
:104FB00050F004C000F005C001F00A0E026E036A52
:104FC000F2EC50F000C052F101C053F152C104F1B3
:104FD00053C105F10101040E6DD2E80E026E030EFD
:104FE000036E04C100F005C101F0EFEC51F001EED9
:104FF0004EF0EECF00F0EDCF01F00450005CE8CFB2
:105000004EF105500158E8CF4FF1E80E026E030E45
:10501000036E01EE52F0EECF00F0EDCF01F0EFECB9
:1050200051F04EC1E8FF0424E8CF4EF14FC1E8FF34
:105030000520E8CF4FF10B0E00012B6F2C6B4FC1F9
:1050400000F0016A00502D6FF2EC04F00C0E00012C
:105050002B6F2C6B4EC12DF0F2EC04F0640E026E3F
:10506000036A01EE4EF0EECF00F0EDCF01F0F2EC6E
:1050700050F004C000F005C001F00A0E026E036A91
:10508000F2EC50F000C052F101C053F152C104F1F2
:1050900053C105F10101050E0DD2640E026E036AC3
:1050A00004C100F005C101F0EFEC51F001EE4EF04B
:1050B000EECF00F0EDCF01F00450005CE8CF4EF1F0
:1050C00005500158E8CF4FF1640E026E036A01EEFD
:1050D00052F0EECF00F0EDCF01F0EFEC51F04EC109
:1050E000E8FF0424E8CF4EF14FC1E8FF0520E8CFE8
:1050F0004FF10B0E00012B6F2C6B4FC100F0016ABA
:1051000000502D6FF2EC04F00C0E00012B6F2C6B95
:105110004EC12DF0F2EC04F00A0E026E036A01EEAD
:105120004EF0EECF00F0EDCF01F0F2EC50F004C005
:1051300000F005C001F00A0E026E036AF2EC50F0B6
:1051400000C052F101C053F152C104F153C105F145
:105150000101060EAFD10A0E026E036A04C100F00F
:1051600005C101F0EFEC51F001EE4EF0EECF00F092
:10517000EDCF01F00450005CE8CF4EF1055001582E
:10518000E8CF4FF10A0E026E036A01EE52F0EECF45
:1051900000F0EDCF01F0EFEC51F04EC1E8FF042438
:1051A000E8CF4EF14FC1E8FF0520E8CF4FF10B0EDD
:1051B00000012B6F2C6B4FC100F0016A00502D6F66
:1051C000F2EC04F00C0E00012B6F2C6B4EC12DF095
:1051D000F2EC04F00A0E026E036A01EE4EF0EECF1E
:1051E00000F0EDCF01F0F2EC50F000C052F101C040
:1051F00053F152C104F153C105F10101070E5AD117
:10520000010104C1E8FF4E5DE8CF4EF105C1E8FFA2
:105210004F59E8CF4FF152C1E8FF4E25E8CF4EF18C
:1052200053C1E8FF4F21E8CF4FF10B0E00012B6F68
:105230002C6B4FC100F0016A00502D6FF2EC04F0AE
:105240000C0E00012B6F2C6B4EC12DF0F2EC04F014
:10525000E80E026E030E036E01EE50F0EECF00F08A
:10526000EDCF01F0F2EC50F004C000F005C001F009
:105270000A0E026E036AF2EC50F000C052F101C057
:1052800053F152C104F153C105F10101080E12D1CD
:10529000E80E026E030E036E04C100F005C101F0BA
:1052A000EFEC51F001EE50F0EECF00F0EDCF01F059
:1052B0000450005CE8CF50F105500158E8CF51F19F
:1052C000E80E026E030E036E01EE52F0EECF00F018
:1052D000EDCF01F0EFEC51F050C1E8FF0424E8CF2E
:1052E00050F151C1E8FF0520E8CF51F10D0E00014A
:1052F0002B6F2C6B51C100F0016A00502D6FF2EC46
:1053000004F00E0E00012B6F2C6B50C12DF0F2EC4F
:1053100004F0640E026E036A01EE50F0EECF00F06E
:10532000EDCF01F0F2EC50F004C000F005C001F048
:105330000A0E026E036AF2EC50F000C052F101C096
:1053400053F152C104F153C105F10101090EB2D06C
:10535000640E026E036A04C100F005C101F0EFECB7
:1053600051F001EE50F0EECF00F0EDCF01F004501F
:10537000005CE8CF50F105500158E8CF51F1640EC0
:10538000026E036A01EE52F0EECF00F0EDCF01F0B5
:10539000EFEC51F050C1E8FF0424E8CF50F151C1C7
:1053A000E8FF0520E8CF51F10D0E00012B6F2C6BAB
:1053B00051C100F0016A00502D6FF2EC04F00E0EA6
:1053C00000012B6F2C6B50C12DF0F2EC04F00A0E93
:1053D000026E036A01EE50F0EECF00F0EDCF01F067
:1053E000F2EC50F004C000F005C001F00A0E026EAD
:1053F000036AF2EC50F000C052F101C053F152C107
:1054000004F153C105F101010A0E54D00A0E026ED7
:10541000036A04C100F005C101F0EFEC51F001EEA8
:1054200050F0EECF00F0EDCF01F00450005CE8CF7B
:1054300050F105500158E8CF51F10A0E026E036A8F
:1054400001EE52F0EECF00F0EDCF01F0EFEC51F0B5
:1054500050C1E8FF0424E8CF50F151C1E8FF052016
:10546000E8CF51F10D0E00012B6F2C6B51C100F0F4
:10547000016A00502D6FF2EC04F00E0E00012B6F4C
:105480002C6B50C12DF0F2EC04F00A0E026E036A90
:1054900001EE50F0EECF00F0EDCF01F0F2EC50F065
:1054A00000C052F101C053F152C104F153C105F1E2
:1054B00001010B0E546F556B74D0010104C1E8FF5C
:1054C000505DE8CF50F105C1E8FF5159E8CF51F1E7
:1054D00052C1E8FF5025E8CF50F153C1E8FF5121F8
:1054E000E8CF51F10D0E00012B6F2C6B51C100F074
:1054F000016A00502D6FF2EC04F00E0E00012B6FCC
:105500002C6B50C12DF0F2EC04F00101546B556B83
:10551000E80E026E030E036E01EE4CF0EECF00F0CB
:10552000EDCF01F0F2EC50F004C052F105C053F1A0
:1055300052C104F153C105F1130EE8CF24F164EC1C
:1055400048F07DEF1CF001EE54F0EECF02F0EDCF0D
:1055500003F025D0025002E19AEF26F0010A01E1A2
:1055600041D4030A01E19CD4010A01E1EED4070A07
:1055700001E133D5010A01E190D5030A01E1EBD540
:10558000010A01E13DD60F0A01E182D6010A01E1DB
:10559000DFD6030A01E13AD7010A8FE002D00350B7
:1055A000D9E0380EE8CF24F1C6EF23F00101546BA7
:1055B000556BE80E026E030E036E01EE4CF0EECF5B
:1055C00000F0EDCF01F0F2EC50F004C052F105C054
:1055D00053F152C104F153C105F1130EE8CF24F188
:1055E00064EC48F07DEF1CF00001940E356F0E0E58
:1055F000366F376B386B640E396F3A6B9AEC51F03B
:105600000001940E376F0E0E386FA70E396F130E10
:105610003A6FA6EC4AF00001356B366B100E376F0F
:10562000386B396B940E3A6F0E0E3B6F64EC49F099
:105630000001940E356F0E0E366F376B386B640EAB
:10564000396F3A6B9AEC51F00001940E376F0E0EE1
:10565000386FF40E396F110E3A6F01EE56F0EECF3F
:1056600029F0EDCF2AF0290EE8CF35F0000EE8CF73
:1056700036F0A6EC4AF0020E0001356F366B376B40
:10568000386B396B940E3A6F0E0E3B6F64EC49F039
:105690000001940E356F0E0E366F376B386B640E4B
:1056A000396F3A6B9AEC51F00001940E376F0E0E81
:1056B000386FD20E396F110E3A6F01EE58F0EECFFF
:1056C00029F0EDCF2AF0290EE8CF35F0000EE8CF13
:1056D00036F0A6EC4AF0040E0001356F366B376BDE
:1056E000386B396B940E3A6F0E0E3B6F64EC49F0D9
:1056F0000001940E356F0E0E366F376B386B640EEB
:10570000396F3A6B9AEC51F00001940E376F0E0E20
:10571000386FE30E396F110E3A6F01EE5AF0EECF8B
:1057200029F0EDCF2AF0290EE8CF35F0000EE8CFB2
:1057300036F0A6EC4AF0060E0001356F366B376B7B
:10574000386B396B940E3A6F0E0E3B6F64EC49F078
:10575000CBD10001940E356F0E0E366F376B386B60
:10576000640E396F3A6B9AEC51F00001940E376F6A
:105770000E0E386F510E396F110E3A6F01EE5CF05C
:10578000EECF29F0EDCF2AF0290EE8CF35F0000E4C
:10579000E8CF36F0A6EC4AF0020EC0EF32F000017E
:1057A000940E356F0E0E366F376B386B640E396F93
:1057B0003A6B9AEC51F00001940E376F0E0E386F71
:1057C000510E396F110E3A6F01EE5CF0EECF29F0F9
:1057D000EDCF2AF0290EE8CF35F0000EE8CF36F0F5
:1057E000A6EC4AF0020EFDEF18F00001940E356FA2
:1057F0000E0E366F376B386B640E396F3A6B9AEC5E
:1058000051F00001940E376F0E0E386F510E396F44
:10581000110E3A6F01EE5CF0EECF29F0EDCF2AF0D9
:10582000290EE8CF35F0000EE8CF36F0A6EC4AF0AE
:10583000020E0001356F366B600EC4EF32F00001CE
:10584000940E356F0E0E366F376B386B640E396FF2
:105850003A6B9AEC51F00001940E376F0E0E386FD0
:10586000510E396F110E3A6F01EE5CF0EECF29F058
:10587000EDCF2AF0290EE8CF35F0000EE8CF36F054
:10588000A6EC4AF0020E0001356F366B680EC4EFCD
:1058900032F00001940E356F0E0E366F376B386B99
:1058A000640E396F3A6B9AEC51F00001940E376F29
:1058B0000E0E386F510E396F110E3A6F01EE5CF01B
:1058C000EECF29F0EDCF2AF0290EE8CF35F0000E0B
:1058D000E8CF36F0A6EC4AF0BFEF32F00001940EAC
:1058E000356F0E0E366F376B386B640E396F3A6B4F
:1058F0009AEC51F00001940E376F0E0E386F510E76
:10590000396F110E3A6F01EE5CF0EECF29F0EDCF5A
:105910002AF0290EE8CF35F0000EE8CF36F0A6ECDD
:105920004AF0040EFDEF18F00001940E356F0E0ED4
:10593000366F376B386B640E396F3A6B9AEC51F0F7
:105940000001940E376F0E0E386F510E396F110E25
:105950003A6F01EE5CF0EECF29F0EDCF2AF0290E80
:10596000E8CF35F0000EE8CF36F0A6EC4AF0040E92
:1059700060D70001940E356F0E0E366F376B386BA3
:10598000640E396F3A6B9AEC51F00001940E376F48
:105990000E0E386F510E396F110E3A6F01EE5CF03A
:1059A000EECF29F0EDCF2AF0290EE8CF35F0000E2A
:1059B000E8CF36F0A6EC4AF0040E65D70001940E4D
:1059C000356F0E0E366F376B386B640E396F3A6B6E
:1059D0009AEC51F00001940E376F0E0E386F510E95
:1059E000396F110E3A6F01EE5CF0EECF29F0EDCF7A
:1059F0002AF0290EE8CF35F0000EE8CF36F0A6ECFD
:105A00004AF0060EC0EF32F00001940E356F0E0E14
:105A1000366F376B386B640E396F3A6B9AEC51F016
:105A20000001940E376F0E0E386F510E396F110E44
:105A30003A6F01EE5CF0EECF29F0EDCF2AF0290E9F
:105A4000E8CF35F0000EE8CF36F0A6EC4AF0060EAF
:105A5000FDEF18F00001940E356F0E0E366F376BA8
:105A6000386B640E396F3A6B9AEC51F00001940E6A
:105A7000376F0E0E386F510E396F110E3A6F01EEFF
:105A80005CF0EECF29F0EDCF2AF0290EE8CF35F00B
:105A9000000EE8CF36F0A6EC4AF0060ECAD600019A
:105AA000940E356F0E0E366F376B386B640E396F90
:105AB0003A6B9AEC51F00001940E376F0E0E386F6E
:105AC000510E396F110E3A6F01EE5CF0EECF29F0F6
:105AD000EDCF2AF0290EE8CF35F0000EE8CF36F0F2
